:020000040000fa
:080000000002040000000000f2
:020000040000fa
:040008009e03000053
:020000040000fa
:04000c009e0300004f
:020000040000fa
:040010009e0300004b
:020000040000fa
:040014009e03000047
:020000040000fa
:040018009e03000043
:020000040000fa
:04001c009e0300003f
:020000040000fa
:040020009e0300003b
:020000040000fa
:040024009e03000037
:020000040000fa
:040028009e03000033
:020000040000fa
:04002c009e0300002f
:020000040000fa
:040030009e0300002b
:020000040000fa
:04003400ea020000dc
:020000040000fa
:040038009e03000023
:020000040000fa
:04003c009e0300001f
:020000040000fa
:040040009e0300001b
:020000040000fa
:040044009e03000017
:020000040000fa
:040048009e03000013
:020000040000fa
:04004c009e0300000f
:020000040000fa
:040050009e0300000b
:020000040000fa
:040054009e03000007
:020000040000fa
:040058009e03000003
:020000040000fa
:04005c005603000047
:020000040000fa
:040060009e030000fb
:020000040000fa
:040064009e030000f7
:020000040000fa
:040068009e030000f3
:020000040000fa
:04006c009e030000ef
:020000040000fa
:040070009e030000eb
:020000040000fa
:04007400c8020000be
:020000040000fa
:040078009e030000e3
:020000040000fa
:04007c009e030000df
:020000040000fa
:040080009e030000db
:020000040000fa
:040084009e030000d7
:020000040000fa
:040088009e030000d3
:020000040000fa
:04008c009e030000cf
:020000040000fa
:040090009e030000cb
:020000040000fa
:040094007e030000e7
:020000040000fa
:040098009e030000c3
:020000040000fa
:04009c009e030000bf
:020000040000fa
:0400a0009e030000bb
:020000040000fa
:0400a4009e030000b7
:020000040000fa
:0400a8009e030000b3
:020000040000fa
:0400ac009e030000af
:020000040000fa
:0400b0009e030000ab
:020000040000fa
:0400b4009e030000a7
:020000040000fa
:0400b8009e030000a3
:020000040000fa
:0400bc009e0300009f
:020000040000fa
:0400c0009e0300009b
:020000040000fa
:0400c4009e03000097
:020000040000fa
:0400c8009e03000093
:020000040000fa
:0400cc009e0300008f
:020000040000fa
:0400d0009e0300008b
:020000040000fa
:0400d4009e03000087
:020000040000fa
:0400d8009e03000083
:020000040000fa
:0400dc009e0300007f
:020000040000fa
:0400e0009e0300007b
:020000040000fa
:0400e4009e03000077
:020000040000fa
:0400e8009e03000073
:020000040000fa
:0400ec009e0300006f
:020000040000fa
:0400f0009e0300006b
:020000040000fa
:0400f4009e03000067
:020000040000fa
:0400f8009e03000063
:020000040000fa
:0400fc009e0300005f
:020000040000fa
:040100009e0300005a
:020000040000fa
:040104009e03000056
:020000040000fa
:040108009e03000052
:020000040000fa
:04010c009e0300004e
:020000040000fa
:040110009e0300004a
:020000040000fa
:040114009e03000046
:020000040000fa
:040118009e03000042
:020000040000fa
:04011c009e0300003e
:020000040000fa
:040120009e0300003a
:020000040000fa
:040124009e03000036
:020000040000fa
:040128009e03000032
:020000040000fa
:04012c009e0300002e
:020000040000fa
:040130009e0300002a
:020000040000fa
:040134009e03000026
:020000040000fa
:040138009e03000022
:020000040000fa
:04013c009e0300001e
:020000040000fa
:040140009e0300001a
:020000040000fa
:040144009e03000016
:020000040000fa
:040148009e03000012
:020000040000fa
:040208009e03000051
:020000040000fa
:04020c009e0300004d
:020000040000fa
:040210009e03000049
:020000040000fa
:040214009e03000045
:020000040000fa
:040218009e03000041
:020000040000fa
:04021c009e0300003d
:020000040000fa
:040220009e03000039
:020000040000fa
:040224009e03000035
:020000040000fa
:040228009e03000031
:020000040000fa
:04022c009e0300002d
:020000040000fa
:040230009e03000029
:020000040000fa
:04023400ea020000da
:020000040000fa
:040238009e03000021
:020000040000fa
:04023c009e0300001d
:020000040000fa
:040240009e03000019
:020000040000fa
:040244009e03000015
:020000040000fa
:040248009e03000011
:020000040000fa
:04024c009e0300000d
:020000040000fa
:040250009e03000009
:020000040000fa
:040254009e03000005
:020000040000fa
:040258009e03000001
:020000040000fa
:04025c005603000045
:020000040000fa
:040260009e030000f9
:020000040000fa
:040264009e030000f5
:020000040000fa
:040268009e030000f1
:020000040000fa
:04026c009e030000ed
:020000040000fa
:040270009e030000e9
:020000040000fa
:04027400c8020000bc
:020000040000fa
:040278009e030000e1
:020000040000fa
:04027c009e030000dd
:020000040000fa
:040280009e030000d9
:020000040000fa
:040284009e030000d5
:020000040000fa
:040288009e030000d1
:020000040000fa
:04028c009e030000cd
:020000040000fa
:040290009e030000c9
:020000040000fa
:040294007e030000e5
:020000040000fa
:040298009e030000c1
:020000040000fa
:04029c009e030000bd
:020000040000fa
:0402a0009e030000b9
:020000040000fa
:0402a4009e030000b5
:020000040000fa
:0402a8009e030000b1
:020000040000fa
:0402ac009e030000ad
:020000040000fa
:0402b0009e030000a9
:020000040000fa
:0402b4009e030000a5
:020000040000fa
:0402b8009e030000a1
:020000040000fa
:0402bc009e0300009d
:020000040000fa
:0402c0009e03000099
:020000040000fa
:0402c4009e03000095
:020000040000fa
:0402c8009e03000091
:020000040000fa
:0402cc009e0300008d
:020000040000fa
:0402d0009e03000089
:020000040000fa
:0402d4009e03000085
:020000040000fa
:0402d8009e03000081
:020000040000fa
:0402dc009e0300007d
:020000040000fa
:0402e0009e03000079
:020000040000fa
:0402e4009e03000075
:020000040000fa
:0402e8009e03000071
:020000040000fa
:0402ec009e0300006d
:020000040000fa
:0402f0009e03000069
:020000040000fa
:0402f4009e03000065
:020000040000fa
:0402f8009e03000061
:020000040000fa
:0402fc009e0300005d
:020000040000fa
:040300009e03000058
:020000040000fa
:040304009e03000054
:020000040000fa
:040308009e03000050
:020000040000fa
:04030c009e0300004c
:020000040000fa
:040310009e03000048
:020000040000fa
:040314009e03000044
:020000040000fa
:040318009e03000040
:020000040000fa
:04031c009e0300003c
:020000040000fa
:040320009e03000038
:020000040000fa
:040324009e03000034
:020000040000fa
:040328009e03000030
:020000040000fa
:04032c009e0300002c
:020000040000fa
:040330009e03000028
:020000040000fa
:040334009e03000024
:020000040000fa
:040338009e03000020
:020000040000fa
:04033c009e0300001c
:020000040000fa
:040340009e03000018
:020000040000fa
:040344009e03000014
:020000040000fa
:040348009e03000010
:020000040000fa
:100400000f8320000e7f22000e01880000000000f4
:10041000000020000000e000020032000001200087
:100420002002880014000700c60007000000e0005a
:1004300003003a00a03e2100010020000200370026
:100440000000200001002000810f70000100320038
:1004500014000700000020000000e000020032004d
:100460000000020000000000041002000000000074
:100470000040da000000fe004440a9000000200017
:100480000000e0000300320000002000a00188000e
:100490004440a800000006008a1f78008b1f7800e7
:1004a0000000060091018800800478000000eb0045
:1004b0001a003700e284440032a0b4009905ba0063
:1004c000e284440032a0b4009906ba00e2844400f9
:1004d00032a0b4000006eb00476fde00fd07b2005b
:1004e000636ce10003003a00ebff07000000eb0043
:1004f0000a003700606ce10004003a00005deb0088
:100500008b05e900fdff3e00040037006168e10053
:10051000010032000086eb000b00070019c7ba008b
:100520001905ba000e04e00003003a000a00e000da
:10053000e0ff3a0000000600fe07b2009e018800be
:100540008a047800f5ff3700395dba008b05e900b1
:100550000c003200295dba008b05e900080032006a
:100560000c00e00003003a00e284440032a0b40032
:10057000f5ff370019ddba008b05e900faff3a00f4
:100580008904e800e184440032a0b40000000600c1
:10059000809fbe003400f80000002000a001880009
:1005a0000000fa008660a9005116800000002800b3
:1005b000008060000000e00002003a00100020000f
:1005c000c04088000080fa003400f9004f00be00ef
:1005d000004006003600f800809fbe00829fbe00eb
:1005e000849fbe00869fbe003400f80000002000fb
:1005f000a00188000000fa00604080000000e800d0
:100600006040880060408000e60f50000600340023
:100610000001eb008000eb000000eb008a04070003
:1006200005e1a9001800370060408000610060000b
:10063000004078000004e000050032000001eb00fb
:100640008000eb000000eb007f0407000e00370085
:10065000704080000000e000040032000001eb0068
:10066000f10f20000000eb007704070080408000bd
:100670000000e000040032000001eb008000eb000d
:10068000f00f2000700407008460a9000080fa00c9
:100690003400f9004f03be004f02be004f01be0000
:1006a0004f00be003600f900004006003600f8009a
:1006b000809fbe00829fbe00849fbe00869fbe00ba
:1006c0003400f80000002000a00188000000fa00bb
:1006d00085a0a90000188000760707000080fa00b6
:1006e0003400f9004f03be004f02be004f01be00b0
:1006f0004f00be003600f90000400600809fbe009b
:100700003400f80000002000a00188000000fa007a
:10071000004080001140800061004000e0804800ff
:1007200000408800114088008760a9000080fa001e
:100730003400f9004f00be00004006000040da001f
:100740000000fe0000000500140020009e0337009a
:100750000001be00220007000470a70003f0a10002
:100760006509b100160032000d0035006828e1006f
:1007700006003500f0ff2f00f1ff27000300e00026
:1007800013003b00010028000000050000004000ad
:10079000818048008502e900fcff3a00080037002c
:1007a000f88f420002003c008000eb0000000500d2
:1007b0008100d1000080d3008502e800fcff3a00f0
:1007c0000300e00002003b0060001000e080180021
:1007d000000006004f89de00820178009503370093
:1007e000c70ade00f107b200f50fb20008003200c0
:1007f000e1cf4200020032000170a0002400050099
:10080000810f70000100320004080500440005005b
:10081000810f700002003a00140005008502e90013
:100820000000400081c04800fcff3b000170a000b8
:10083000240005006022b800060220000000d0005d
:100840008180d2000482d2008582d2000000a00004
:100850000202520083825a00030031000202420069
:1008600083824a000000a1000603e900f3ff3a007a
:100870000000060007f82700078361000638e10042
:1008800004003a00f70720008783610087037100a6
:1008900001003a0003f0a200889fbe008a9fbe00bc
:1008a0008c9fbe00470ade000480a100c71ade004c
:1008b0000580a1000700280007856000878561008a
:1008c000f70f20000720e1009e0032000728e1001a
:1008d0009c003200010678000400e000b400320001
:1008e000f7072000878060000170a0000500e0008d
:1008f000c0003200f7072000878161000370a0006c
:10090000050652000f003a000b50e1000b003200c8
:100910000308e10002003a000200e1007e0032001c
:100920000204500083845800040031000001fd00df
:100930008101fd008402fd008a05fd006044b800cd
:10094000210037000520e10005003d000001fd0009
:100950008101fd008402fd008a05fd0005065200ac
:100960007a60e100050035000170a1004722dd003a
:10097000848070008a807000630037006044b80093
:10098000ef02660007ff2f00070666000500e00083
:1009900006003400f08312008714dd000511de002c
:1009a000071bdd00060171008519de007060e100a3
:1009b00005003500090478008204780003017800fe
:1009c0008001eb00700656000b50e10003003a0076
:1009d00002004000838048000400370060041400d7
:1009e000e0841c0002005800838058000188a300a6
:1009f000060032008100d1000080d3008984d3003a
:100a00000884d3000402e800270037000178a3001f
:100a100025003a000100e000030032008186cf008b
:100a2000698656000a0037008c0020000000e000b4
:100a300004003a0009007800880478000004eb0004
:100a4000700252008086cf000d0646000c06e900b9
:100a50007060e10006003500800078000900780031
:100a6000880478000004eb00700656007002520003
:100a70000c00e0000c0034008c08dd00f0031600d0
:100a80000703de00868070000c00dd00074bde00ef
:100a9000060070008c4cdd000743de008684740085
:100aa0000c44dd000c0252006120e1002000350002
:100ab000610160000700280087816400f7ff2700bc
:100ac00087836400070374000300e000060032001f
:100ad00082037300040032000000e800e080480058
:100ae0000188a3000e003a00f70f20000720e10064
:100af0004a003d000170a1004722dd008100720024
:100b00008a8070000000be004f06be004f05be0088
:100b10004f04be00000006006000b800faff370076
:100b20008100d1000080d3000402e800eeff37000e
:100b30000401780089017400a10107008a80700017
:100b4000f1ff3700f7010700070278000001fd0000
:100b50008101fd00f3010700870278008503720020
:100b60000778a300040032000001fd008101fd00b0
:100b700006020700e4ff3700850362000768a30050
:100b8000080032000b50e10003003200f0ff2f009c
:100b9000f1ff2700dcff37000001fd008101fd00af
:100ba000d9ff37000468a300d7ff3200faff3700ef
:100bb000f8ff2700888360000b003a000000e00087
:100bc00009003a008303640082837300020032004c
:100bd0000200be00ccff37000b50e100ceff3a0010
:100be0000200be00c8ff370014002000810064002e
:100bf0003eff3700f8ff27008883610004003a00b9
:100c00000200e00002003a008c007800beff3700ce
:100c1000150020008301640039ff370001f8270028
:100c20000000200081007500b7ff3700889fbe00dc
:100c30008a9fbe008c9fbe001b0020000202be00e7
:100c40000586680006002800060666004709de00e3
:100c5000f20fb200820032000243e800800032004e
:100c6000c729de00f30fb2007d0032000343e80025
:100c70007b003200f107b2000170a000f507b2005e
:100c80000570a000c708dd004903de008680700003
:100c90004700dd00c72add004923de00868272009e
:100ca0004722dd00030551000403500085835800ee
:100cb0000300310000004000818048000a05e9007f
:100cc0008c1f78008a9fbe00040050008580580069
:100cd0000402420085824a000000400081804800f2
:100ce0000005eb000004be006033b8000406be003f
:100cf0000d48e10056003100110009004dccd8002c
:100d00000c01b8000d02b8008481410060824a00e5
:100d10008283530003045c0084845c0060055d00f2
:100d20000a00e00025003a00800578000d40e1004f
:100d300049003100880078000700780011000900a0
:100d40004d88d8000c01b8000d02b8008481410024
:100d500060824a006003110083835b0004045c002e
:100d6000e0845c000900e00021003a004f01be0071
:100d70000300e0002b003200e3016000070673006f
:100d80008c81710001003200640070004200de00be
:100d90004e5edd000c007000c258de0001e0a000d5
:100da00083010700cf017800818071004f06be00eb
:100db0004f05be004f04be00000006008c834300b8
:100dc0000d044c00e0844c0060054d000000e9007b
:100dd0000a00e000d4ff32008c8343000d044c0075
:100de000e0844c0060054d000000e900ceff3700b4
:100df0000c0343008d834b0060044c00e0844c00e6
:100e00000000e9000900e000d8ff32000c034300b5
:100e10008d834b0060044c00e0844c000000e9002e
:100e2000d2ff37004200de004e5edd000c00700095
:100e3000c258de0001e0a000cf0178000300e0000e
:100e4000daff320060001000e0801800d7ff3700a2
:100e5000f0ff2f00aaff3700f0ff2f00b9ff370087
:100e60000404be002f010700870678000004fd007f
:100e70008104fd002b010700078366000678a300ac
:100e8000030032000960a7000800be002c003700f4
:100e90000d78a300020032000800be0028003700d1
:100ea0000778a30026003a0001f0a10009f0a10094
:100eb0000668a30003003200f1ff2700f0ff2f00b7
:100ec000baff37000d68a300030032000800be001f
:100ed0008c807000b5ff37000768a30007003a0058
:100ee0000648a30003003200f1ff2700f0ff2f00a7
:100ef000aeff37000d48a300030032006000b800c9
:100f00008c807000a9ff37000748a300040032005e
:100f100001f82700000020008c807000a3ff37003c
:100f2000760107000004fd008104fd000205780041
:100f3000720107000802be008a01780059ff3700dd
:100f40000160a00012022000d240880097ff370005
:100f50000100e000120032000500e0001000320045
:100f6000889fbe008a9fbe008c9fbe000006eb00db
:100f700001f8a3000300320060001000e0801800b8
:100f80000cf0a00005f8a30003003200600212007c
:100f9000e0821a000cf0a2008005eb0041ff370050
:100fa0006000b80002000500038368000700280005
:100fb00007036300470ade000480a100c71ade00b1
:100fc0000580a100f70f20000720e1004200320059
:100fd0000728e10040003200889fbe008a9fbe00c3
:100fe0008c1f7800f107b200f307b2000400e000a4
:100ff000640032000170a0000500e00068003200cb
:101000000370a00085054200eb07b1000204b800a0
:101010000302b8008484440060854a00020ab800d4
:10102000848444000a854a00030ab8000405450088
:10103000040033000804d0008984d2000a85d2005d
:101040008b05e9006158e1003d00350002102000e9
:10105000090161000308200089816100f707200071
:101060008783640008867300c84cde00c853dd0027
:10107000878474004855de000300e000060032005b
:1010800082037600040032008904e80060054d0008
:101090000a88a3000c003a00f70f20000758e1006f
:1010a00044003d000a70a100c75ddd000a8575009f
:1010b0008a007300090078004f0678004f05be00d3
:1010c0004f04be00000006000a05d1008984d30049
:1010d0008b05e800f0ff3700881f780006047800d1
:1010e00090000700070278000001fd008101fd006b
:1010f0008c00070087027800850372000778a30040
:10110000050032000001fd008101fd009f00070085
:101110004f04780000000600850372000748a30012
:1011200003003200f0ff2f00f1ff2700f8ff370027
:101130000000200001f8270088807000f4ff3700cd
:10114000880178004848dd00808171004848de0051
:10115000c850dd0001007000c850de0006047800b1
:101160000b0178001600070088807000d2ff37005e
:101170000500e00005003200170020003a000700db
:101180009dff370081037000f9ff3a008600780068
:101190004f0678004f05be004f04be00000005005a
:1011a00083037100f9ff3200270020002e000700a2
:1011b00094ff370001f8270086807000f4ff3700a5
:1011c0000100e00026003200610111007810e1000a
:1011d00023003c006022b8007010e10004003500dc
:1011e00080027800010078008000eb00700151005f
:1011f0000200e0000900340070031100062add003f
:10120000822ade008603dd00878272000200de0093
:10121000860bdd00070070008208de00848171000b
:10122000f4ff27000482620084817100040028001a
:10123000848262006102600005f0a60000000600e2
:1012400004827100070032000000e800e0804800de
:10125000000006000002be006000b800efff37008b
:101260006000b80000000600889fbe000004eb008c
:101270006138e10016003a000100e00008003a0081
:10128000c800de004800dd00880020000100e0000a
:1012900003003a00c800de004800dd006804440096
:1012a0008184cf00e9845400060034008908dd0001
:1012b000f08314008703de00878070000900dd00e2
:1012c00009044400610214004f04be00000006003f
:1012d0000300e00008003a00c811de004811dd00fc
:1012e000880020000300e00003003a00c811de007f
:1012f0004811dd00680444008384cf00e984540071
:10130000060034008919dd00f08314008713de0025
:10131000878171000911dd0009044400e102140015
:10132000e9ff37002700200001f0a7001700200088
:10133000470bde00f60fb200040032000643e8005f
:101340000a0032004702b3000000060001037800e3
:10135000f607b2000603700002003a000703b3006c
:10136000000006008702b3000000060001037800b9
:10137000f607b20006037000020032000770a000fa
:10138000000006000760a000000006000478a3002b
:10139000040032000578a300030032000168a300b6
:1013a00001003a000200be000160a000000006003b
:1013b00081017000270032008002eb0001f8a300d9
:1013c0000300320060001000e080180015002000cb
:1013d000f40720000202420020003400f70320003e
:1013e0008703600006042000000363000208200059
:1013f000000161004700de00c909dd0000807100c6
:10140000c708de000600e000080032008703710014
:10141000060032001000b0000180b0000188a30077
:1014200002003200c108de000402e800f107b20049
:10143000f30f20000320e10003003d004722dd0000
:10144000810072002900370001f827000000eb003e
:10145000260037006000b800000006006802120095
:101460007f20e100020034006000b8001f00370058
:101470006011b8007020e1000400350080017800a0
:10148000010078008000eb00700252000400e000d0
:1014900009003400f00312000719dd008419de0092
:1014a0000703dd00868171000400de00070bdd000c
:1014b000060070008408de00f7ff270083836300c6
:1014c0008703710006002800030363000700320051
:1014d0000700e00003003a00610160000281730030
:1014e000020032001000b0000180b0000500a6002c
:1014f0000000060001f0a000000006004f0ade0018
:101500004709de00f107b200f20fb2000b00320013
:10151000f207b1000170a000c708dd00c901de00bc
:10152000838070004700dd000400a6000000060074
:1015300060001000e080180000000600810f7000bd
:1015400001003a00000006008182cf000500e000a3
:1015500010003e008082cf00ee8242007028e10041
:101560000400390007003e00800078000000eb0016
:101570000e003700708312008600de000500dd00db
:101580000a003700708352008600dd000000eb0087
:1015900006003700e28252008508dd0070831200e9
:1015a0000603de00868070000500dd007507b000d0
:1015b0000501ea000400a60000000600600010001b
:1015c000e080180000000600889fbe008a9fbe00d1
:1015d000841f78007c0007004f0078001100330062
:1015e000f0ff2f00838f6c0006003b0004056500b0
:1015f0000a00a7000800370009f0a600100020002c
:1016000008003700820f5400838f5c00030039000c
:101610001000200001003e000000200009f0a7009b
:101620000000ea004f05be004f04be000000e000cd
:1016300000000600881f7800030478000300e00023
:1016400007003d0060001000e080180060011900f4
:10165000e081190002003b0001f02d00030037007b
:101660000400070008f0a70001f0a0004f04780074
:1016700000000600889fbe008a9fbe0000827000a6
:101680000402710004827100260032000004be00d2
:101690000200be006011b8006b0920009502200016
:1016a0000182cf000a0039000541b1000082cf005d
:1016b000070039000541b1000982cf00040039005c
:1016c0000541b1000882cf00010039000541b10099
:1016d00005425200120032000a003b008281710074
:1016e000610164008100d1000080d3008984d300af
:1016f0000884d3008b05e8000442e800f7ff3a00b5
:10170000070037000804440089844c0000004800aa
:10171000818048008b05e9000442e900f9ff3a00a6
:10172000030007004f05be004f04be000000060086
:1017300081002000618055000b003d000b0020005f
:1017400061fe2f000100e1001d0034008281710064
:10175000610164008904d1000884d3000000e8001e
:10176000faff3a007100200061006400030070007d
:10177000020060000900320061044400e0844c0073
:101780000988a500050032008b05e8006808e10023
:1017900002003a008904d1000884d300f20f20002f
:1017a0000258e10005003d00c75ddd00f907b20009
:1017b0008980750008007800000006000bf82700fb
:1017c0008b007800000005000004be0004fc070048
:1017d0000003be000405be000200be0000fc0700be
:0817e000844f750000000600b3
:020000040000fa
:1017e8000000fa00213a8000f08f2f00008060008e
:1017f800203a88002d63a800c9a2a900cda2a9009b
:101808000080fa00000006000000fa000c28ef0033
:1018180021088000f0fc2f00008060000050a0002c
:1018280020088800f0342c00100888009460a80074
:101838008460a90005e1a8000080fa000000060005
:101848001200fa00889fbe00600798007107980090
:10185800020f98006000b800200798003107980030
:101868006e009000cf80de002e019000be01900037
:101878000200400083804800200798003107980044
:101888002e019000be0190004818dd00c810de004f
:10189800810070004810dd0020079800310798008b
:1018a8007e009000cf80de002e019000be019000e7
:1018b8000200400083804800200798003107980004
:1018c8002e019000be0190004818dd00c810de000f
:1018d800810070004810dd0020079800310798004b
:1018e8000e089000cf80de002e019000be0190000f
:1018f80002004000838048002007980031079800c4
:101908000000200001082000008fbe001a003700e8
:101918002e009000be0090001e01be00020278005a
:1019280003017800800178008100780003006200dc
:101938008100610081047800000478000800be007e
:1019480040079800510798004e009000de00900074
:10195800e00f5000e08f5800020032008e030700ad
:1019680001003700850307001e00be008100d1007a
:101978000080d300008fbe001e00be00e00f5000a4
:10198800e08f5800e2ff3a005000200003000700f3
:101998004f04be000080fa00000006000400fa00b0
:1019a800100798000000eb00000f780002003700d5
:1019b800830307001e0fe8001e0090009e007800b9
:1019c800808f5000faff35000080fa000000060002
:1019d8000200fa00004f78001ecfea0040c5b300ad
:1019e8009e40780080cf50000d003e001e407800d9
:1019f8006300b90000007800004178009e4078003c
:101a0800d00f20000088b90000007800004078005e
:101a18000040e9008040eb00260007002300370063
:101a280090cab3009e40780080cf500010003e005e
:101a3800b0cab3001e4f40009e407800d00f20006f
:101a48000088b90000007800004078000041e900f3
:101a58001e4078006300b90000007800004078005c
:101a6800804078000040eb00120007000f003700ac
:101a780061c5b3001ecf40009e407800d00f200003
:101a88000088b90000007800004078008041e90033
:101a98001e4078006300b90000007800004078001c
:101aa8000041eb0083407800020007000080fa0044
:101ab800000006000800fa004047980051479800c7
:101ac800624798004e4090000080fb008000eb00c9
:101ad800c001dd00020020005e4090000082fb0093
:101ae8008002eb004828dd00c820de00810070007d
:101af8004820dd0000017100818171006e40900076
:101b08000080fb008000eb00000071008180710004
:101b1800008fbe001e00be000080fa000000060014
:101b28000400fa00008fbe001e00be004008de0060
:101b3800004078000080fa00000006000400fa0067
:101b4800008fbe001e00be004809dd004800de0010
:101b580000007100c808de00004078000080fa002c
:101b6800000006000400fa00008fbe001e00780086
:101b7800004078000080fa00000006000c00fa001f
:101b8800889fbe0040079800510798000000200079
:101b980001082000008fbe001a0037004e00900098
:101ba800de0090001e01be000202780003017800ea
:101bb80080017800810078000300620081006100e4
:101bc80081047800000478000800be00200798000f
:101bd800310798002e009000be009000e00f5000e2
:101be800e08f580002003200eb02070001003700c6
:101bf800e20207001e00be008100d1000080d30071
:101c0800008fbe001e00be00e00f5000e08f58009d
:101c1800e2ff3a005000200060ff07004f04be00ba
:101c28000080fa00000006000000fa000001eb0046
:101c3800f10f20000000eb0001ff07001028ef0063
:101c48001000200070408800effe07000080fa00b6
:101c5800000006000000fa000001eb008000eb0025
:101c6800f00f2000f6fe07000e28ef0010002000fd
:101c780080408800e4fe07000080fa0000000600ab
:101c88000000fa00213a8000f08f2f0000806000e9
:101c9800203a8800c902a900c922a90007e2a900c0
:101ca8008620a900d00920002010880007e2a8009b
:101cb80040062000c200070001c8b30040c2b300bc
:101cc8005d00070040062000bd0007008040eb00d3
:101cd80040c2b3005800070040062000b8000700c3
:101ce80071c7b30000c2b3005300070011c0b300ae
:101cf80010c2b3005000070001c4b30020c2b300f3
:101d08004d00070041c8b30030c2b3004a000700c5
:101d180001c2b30020c3b30047000700a1c2b3004b
:101d280080c3b300440007000080fa0000000600ea
:101d38000400fa00204798000602a80000000000ee
:101d480030108000610060000000e000fcff3a00f5
:101d58008620a90000032000101088000000000061
:101d680030048000620060000000e000fcff3200e8
:101d78008620a9002e4090000080fb0010108800eb
:101d88000000000030048000620060000000e000f5
:101d9800fcff32008620a9001003200010108800e4
:101da8000000000030048000620060000000e000d5
:101db800fcff32000602a80000000000301080007e
:101dc800610060000000e000fcff3a008620a900e6
:101dd800100320001010880000000000300480006c
:101de800620060000000e000fcff32000662a8000c
:101df8000000000040108000620060000000e00069
:101e0800fcff32008620a90006a2a900001080006d
:101e1800000f78000642a800000000003010800083
:101e2800640060000000e000fcff3a001e0078003b
:101e38000080fa00000006000200fa00004f780057
:101e4800114798000602a80000000000301080002a
:101e5800610060000000e000fcff3a008620a90055
:101e680000032000101088000000000030048000eb
:101e7800620060000000e000fcff32008620a9003c
:101e88001e80fb0010108800000000003004800055
:101e9800620060000000e000fcff32008620a9001c
:101ea8001e4090000080fb00101088000000000019
:101eb80030048000620060000000e000fcff320097
:101ec8008620a9000642a80000000000301080000b
:101ed800640060000000e000fcff3a000080fa00a7
:101ee800000006000200fa0090c2b30090ff07004d
:101ef8004800dd00000f780080c2b3008cff0700a7
:101f08001e0f70001e0078000080fa000000060016
:101f18000200fa00b0c2b30085ff07004800dd00e8
:101f2800000f7800a0c2b30081ff07001e0f7000e9
:101f38001e0078000080fa00000006000200fa0087
:101f4800d0c2b3007aff07004800dd00000f780018
:101f5800c0c2b30076ff07001e0f70001e00780095
:101f68000080fa00000006000000fa00f3ff0700f6
:101f780081a92300810f50000200340010002000c6
:101f88000d003700e2ff070081a92300810f5000f0
:101f9800020034001000200007003700e7ff0700a8
:101fa80081a92300810f5000020034001000200096
:101fb800010037000000eb000080fa000000060076
:101fc8000200fa00000f7800020037007e3e090088
:101fd800000000001e00780000f0a7000000ea00e2
:101fe8000000ea004f00de00004078001e0fe90004
:101ff8000004e000f5ff3a000080fa000000060047
:102008000000fa0004000700180007000000eb00b9
:102018000080fa00000006000000fa00000020001e
:10202800011224006c01070015ff0700ecfd0700f2
:10203800ba010700de0007001e21ef001421ef009f
:10204800f10880000003200001007000f0088800fb
:102058000080eb00d00888009760a8008760a9007e
:102068001fe1a8000080fa00000006000600fa0040
:102078000000eb00000f78000100370000000000ae
:10208800b40107000000e000fcff3200e6fe070094
:10209800a00880006102b800004080001140800064
:1020a8000081eb000289b900020178006003b900e1
:1020b80086017800030141008081eb000300b8002d
:1020c800010141008200780004004000858048003a
:1020d8002040880031408800204080003140800046
:1020e80040408800514088004240800053408000b2
:1020f800204080003140800000005100818059005c
:1021080010079800210798001f003700a0088000da
:102118006102b80000408000114080000081eb009f
:102128000289b900020178006003b90086017800cd
:10213800030141008081eb000300b8000101410068
:1021480082007800040040008580480040408800f4
:102158005140880042408000534080002040800069
:10216800314080000000510081805900100798001c
:1021780021079800770107000000e0000200320004
:1021880010002000000f78001e019000ae019000a2
:1021980080ff2f0061002000800f5100818f5900bf
:1021a80003003e001e0078000000e000d7ff320068
:1021b8001e0078000000e00064003a00600037006c
:1021c800640107000000e000020032001000200057
:1021d800000f780064ff07000000e00003003a00e9
:1021e800dd0007000000e00055003200a008800074
:1021f8006102b80000408000114080000081eb00bf
:102208000289b900020178006003b90086017800ec
:10221800030141008081eb000300b8000101410087
:102228008200780004004000858048002040880033
:1022380031408800204080003140800040408800c4
:102248005140880042408000534080002040800078
:10225800314080000000510081805900100798002b
:10226800210798001f003700a00880006102b8000d
:1022780000408000114080000081eb000289b90015
:10228800020178006003b90086017800030141006b
:102298008081eb000300b800010141008200780052
:1022a8000400400085804800404088005140880074
:1022b8004240800053408000204080003140800030
:1022c80000005100818059001007980021079800ec
:1022d800200107000000e00002003200100020008a
:1022e800000f78001e019000ae019000b0ff2f0093
:1022f80031002000800f5100818f590003003e00fb
:102308001e0078000000e000d7ff32001e007800b1
:102318000000e0000a003a00ed0007000500370061
:102328000c0107000000e00002003200100020004d
:10233800000f78001e0078000000e000f8ff32006f
:102348001e0078000000e0009dff32000000eb0056
:10235800000f78003ffe0700ea00070048ff37003b
:102368000400fa00008fbe00020037007e3e09001c
:10237800000000001e0090001e00700000f0a70082
:102388000000ea000000ea004f00de00004078008c
:102398000081eb008081eb001e0f41005e97490031
:1023a8000004e000f1ff3a000080fa000000060097
:1023b8000000fa00213a8000f08f2f0000806000b2
:1023c800203a8800c002a8002c03a9001119800037
:1023d800f0ff2100008060001019880010c0b300d1
:1023e80024e3b70001198000f0f12f00008060009d
:1023f8000060a0000019880021198000f00f2e004d
:10240800008060000080a000201988000119800069
:10241800f0cf2f0000806000001988002043a8003a
:102428001119800030fc2f0000806000101988000e
:1024380021e3a80085a0a90095a0a8000a21ef0023
:102448001221ef0091088000f0fc2f00008060004e
:102458000050a0009008880080d0230070088800f1
:1024680013e1a8000080fa00000006000200fa004c
:102478000000eb00000f7800070037001e0078000e
:1024880080004000c0812000008040008000eb00f8
:10249800010878001e0fe8001e007800e90f5000c0
:1024a800f6ff34000080fa00000006000200fa007f
:1024b800000f78009040800000014000c18120009a
:1024c800810041009e0878000000e80090408800e4
:1024d80090408000e90f5000010034001228ef00fe
:1024e8000080fa00000006000800fa006000b8004a
:1024f800008fbe000000eb00200798000b0037009b
:102508002e00900080004000c08120000080400024
:1025180010007800cf80de001e0f40005e97480054
:102528002e0090000000e800200798002e00900080
:10253800e90f5000f2ff34001e00be00a200200088
:1025480003002000b9f80700300798003e0090000b
:102558000080fa00000006000000fa00881f7800da
:10256800e1ff0700cf80de0098f807000200200096
:1025780003b423008afa0700a0408800b14088000d
:10258800704180000000e00002003a000080eb008b
:102598000e003700a0408000b140800018c0b30092
:1025a800020020000300240065f807000000e00096
:1025b800010034000044eb000804e000020032008f
:1025c80010002000010037000000eb004f047800e5
:1025d8000080fa00000006000c00fa00400798008e
:1025e80051079800213a8000f08f2f00008060008a
:1025f800203a88002d43a800c9c2a900cdc2a9006d
:102608001021ef000621ef00810880000003200060
:1026180001007000800888004e009000de009000e5
:102628000001be009af807000001be00000020006b
:1026380001f823007bf90700008fbe00d27b23003e
:10264800637823001e00be0076f907000200200010
:1026580003f8230085f807003bf8070020079800d7
:10266800310798002e00900060088800113a800019
:10267800f00b20000081600060042000710520003c
:1026880023742000804978008149780082497800c5
:102698007136800000fe2f00008060002001b3002a
:1026a80070368800103a8000000178000260a000af
:1026b8006004200071052000237420008049780000
:1026c80081497800824978000080fa0000000600fd
:1026d8000000fa008421ef008221ef00210c800025
:1026e80080ff2f00008060003000b300200c8800bd
:1026f8008461a9000621ef0011e1a8000080fa001a
:10270800000006000000fa008421ef0011e1a90092
:10271800cdc2a9000080fa00000006000000fa00ff
:102728001828ef00213a8000f08f2f000080600009
:10273800203a88002d23a800c9e2a8006960a800f3
:102748006160a8009660a8008660a9000080fa0071
:10275800000006000000fa00c04080000000e00011
:10276800030032001828ef00100020000100370095
:102778000000eb000080fa0000000600cda2a800cf
:102788000300090000000000cda2a900060009000e
:102798000000000000000600cda2a8000800090003
:1027a80000000000cda2a9000100090000000000ff
:1027b80000000600390609000000000000000600bd
:0c27c800793e090000000000000006003f
:020000040000fa
:1027d4001808000002000000000000000c080000bf
:1027e40006000000000000001c08000014000000a7
:1027f40000000000120800000600000000000000b5
:10280400000800000c000000000000001a0800008e
:0c281400020000000000000000000000b6
:020000040000fa
:020000040001f9
:0457f8000ff90000a5
:020000040000fa
:020000040001f9
:0457fc007f3f0000eb
:00000001FF
