:020000040000fa
:080000000002040000000000f2
:020000040000fa
:0400080034030000bd
:020000040000fa
:04000c0034030000b9
:020000040000fa
:0400100034030000b5
:020000040000fa
:0400140034030000b1
:020000040000fa
:0400180034030000ad
:020000040000fa
:04001c0034030000a9
:020000040000fa
:0400200034030000a5
:020000040000fa
:0400240034030000a1
:020000040000fa
:04002800340300009d
:020000040000fa
:04002c003403000099
:020000040000fa
:040030003403000095
:020000040000fa
:04003400c8020000fe
:020000040000fa
:04003800340300008d
:020000040000fa
:04003c003403000089
:020000040000fa
:040040003403000085
:020000040000fa
:040044003403000081
:020000040000fa
:04004800340300007d
:020000040000fa
:04004c003403000079
:020000040000fa
:040050003403000075
:020000040000fa
:040054003403000071
:020000040000fa
:04005800340300006d
:020000040000fa
:04005c003403000069
:020000040000fa
:040060003403000065
:020000040000fa
:040064003403000061
:020000040000fa
:04006800340300005d
:020000040000fa
:04006c003403000059
:020000040000fa
:040070003403000055
:020000040000fa
:040074003403000051
:020000040000fa
:04007800340300004d
:020000040000fa
:04007c003403000049
:020000040000fa
:040080003403000045
:020000040000fa
:040084003403000041
:020000040000fa
:04008800340300003d
:020000040000fa
:04008c003403000039
:020000040000fa
:040090003403000035
:020000040000fa
:040094003403000031
:020000040000fa
:04009800340300002d
:020000040000fa
:04009c003403000029
:020000040000fa
:0400a0003403000025
:020000040000fa
:0400a4003403000021
:020000040000fa
:0400a800340300001d
:020000040000fa
:0400ac003403000019
:020000040000fa
:0400b0003403000015
:020000040000fa
:0400b4003403000011
:020000040000fa
:0400b800340300000d
:020000040000fa
:0400bc003403000009
:020000040000fa
:0400c0003403000005
:020000040000fa
:0400c4003403000001
:020000040000fa
:0400c80034030000fd
:020000040000fa
:0400cc0034030000f9
:020000040000fa
:0400d00034030000f5
:020000040000fa
:0400d40034030000f1
:020000040000fa
:0400d80034030000ed
:020000040000fa
:0400dc0034030000e9
:020000040000fa
:0400e00034030000e5
:020000040000fa
:0400e40034030000e1
:020000040000fa
:0400e80034030000dd
:020000040000fa
:0400ec0034030000d9
:020000040000fa
:0400f00034030000d5
:020000040000fa
:0400f40034030000d1
:020000040000fa
:0400f80034030000cd
:020000040000fa
:0400fc0034030000c9
:020000040000fa
:0401000034030000c4
:020000040000fa
:0401040034030000c0
:020000040000fa
:0401080034030000bc
:020000040000fa
:04010c0034030000b8
:020000040000fa
:0401100034030000b4
:020000040000fa
:0401140034030000b0
:020000040000fa
:0401180034030000ac
:020000040000fa
:04011c0034030000a8
:020000040000fa
:0401200034030000a4
:020000040000fa
:0401240034030000a0
:020000040000fa
:04012800340300009c
:020000040000fa
:04012c003403000098
:020000040000fa
:040130003403000094
:020000040000fa
:040134003403000090
:020000040000fa
:04013800340300008c
:020000040000fa
:04013c003403000088
:020000040000fa
:040140003403000084
:020000040000fa
:040144003403000080
:020000040000fa
:04014800340300007c
:020000040000fa
:0402080034030000bb
:020000040000fa
:04020c0034030000b7
:020000040000fa
:0402100034030000b3
:020000040000fa
:0402140034030000af
:020000040000fa
:0402180034030000ab
:020000040000fa
:04021c0034030000a7
:020000040000fa
:0402200034030000a3
:020000040000fa
:04022400340300009f
:020000040000fa
:04022800340300009b
:020000040000fa
:04022c003403000097
:020000040000fa
:040230003403000093
:020000040000fa
:04023400c8020000fc
:020000040000fa
:04023800340300008b
:020000040000fa
:04023c003403000087
:020000040000fa
:040240003403000083
:020000040000fa
:04024400340300007f
:020000040000fa
:04024800340300007b
:020000040000fa
:04024c003403000077
:020000040000fa
:040250003403000073
:020000040000fa
:04025400340300006f
:020000040000fa
:04025800340300006b
:020000040000fa
:04025c003403000067
:020000040000fa
:040260003403000063
:020000040000fa
:04026400340300005f
:020000040000fa
:04026800340300005b
:020000040000fa
:04026c003403000057
:020000040000fa
:040270003403000053
:020000040000fa
:04027400340300004f
:020000040000fa
:04027800340300004b
:020000040000fa
:04027c003403000047
:020000040000fa
:040280003403000043
:020000040000fa
:04028400340300003f
:020000040000fa
:04028800340300003b
:020000040000fa
:04028c003403000037
:020000040000fa
:040290003403000033
:020000040000fa
:04029400340300002f
:020000040000fa
:04029800340300002b
:020000040000fa
:04029c003403000027
:020000040000fa
:0402a0003403000023
:020000040000fa
:0402a400340300001f
:020000040000fa
:0402a800340300001b
:020000040000fa
:0402ac003403000017
:020000040000fa
:0402b0003403000013
:020000040000fa
:0402b400340300000f
:020000040000fa
:0402b800340300000b
:020000040000fa
:0402bc003403000007
:020000040000fa
:0402c0003403000003
:020000040000fa
:0402c40034030000ff
:020000040000fa
:0402c80034030000fb
:020000040000fa
:0402cc0034030000f7
:020000040000fa
:0402d00034030000f3
:020000040000fa
:0402d40034030000ef
:020000040000fa
:0402d80034030000eb
:020000040000fa
:0402dc0034030000e7
:020000040000fa
:0402e00034030000e3
:020000040000fa
:0402e40034030000df
:020000040000fa
:0402e80034030000db
:020000040000fa
:0402ec0034030000d7
:020000040000fa
:0402f00034030000d3
:020000040000fa
:0402f40034030000cf
:020000040000fa
:0402f80034030000cb
:020000040000fa
:0402fc0034030000c7
:020000040000fa
:0403000034030000c2
:020000040000fa
:0403040034030000be
:020000040000fa
:0403080034030000ba
:020000040000fa
:04030c0034030000b6
:020000040000fa
:0403100034030000b2
:020000040000fa
:0403140034030000ae
:020000040000fa
:0403180034030000aa
:020000040000fa
:04031c0034030000a6
:020000040000fa
:0403200034030000a2
:020000040000fa
:04032400340300009e
:020000040000fa
:04032800340300009a
:020000040000fa
:04032c003403000096
:020000040000fa
:040330003403000092
:020000040000fa
:04033400340300008e
:020000040000fa
:04033800340300008a
:020000040000fa
:04033c003403000086
:020000040000fa
:040340003403000082
:020000040000fa
:04034400340300007e
:020000040000fa
:04034800340300007a
:020000040000fa
:100400006f8020000e7f22000e0188000000000097
:10041000000020000000e000020032000001200087
:100420002002880014000700910007000000e0008f
:1004300003003a00205c2000010020000200370089
:100440000000200001002000810f70000100320038
:1004500014000700000020000000e000020032004d
:100460000000020000000000b005020000000000d3
:100470000040da000000fe004440a9000000200017
:100480000000e0000300320000002000a00188000e
:100490004440a800000006008a1f78008b1f7800e7
:1004a0000000060091018800800478000000eb0045
:1004b0001a003700e284440032a0b4009905ba0063
:1004c000e284440032a0b4009906ba00e2844400f9
:1004d00032a0b4000006eb00476fde00fd07b2005b
:1004e000636ce10003003a00ebff07000000eb0043
:1004f0000a003700606ce10004003a00005deb0088
:100500008b05e900fdff3e00040037006168e10053
:10051000010032000086eb000b00070019c7ba008b
:100520001905ba000e04e00003003a000a00e000da
:10053000e0ff3a0000000600fe07b2009e018800be
:100540008a047800f5ff3700395dba008b05e900b1
:100550000c003200295dba008b05e900080032006a
:100560000c00e00003003a00e284440032a0b40032
:10057000f5ff370019ddba008b05e900faff3a00f4
:100580008904e800e184440032a0b40000000600c1
:100590003600f800809fbe00829fbe00849fbe0090
:1005a000869fbe003400f80000002000a0018800f3
:1005b0000000fa00004080000000e80000408800d1
:1005c00000408000e60f5000060034000001eb0000
:1005d0008000eb000000eb003d00070005e1a900f2
:1005e0001800370000408000610060000040780083
:1005f0000004e000050032000001eb008000eb0089
:100600000000eb00320007000e00370010408000b1
:100610000000e000040032000001eb00f10f2000b8
:100620000000eb002a000700204080000000e000ee
:10063000040032000001eb008000eb00f00f20000e
:10064000230007008460a9000080fa003400f9004c
:100650004f03be004f02be004f01be004f00be0060
:100660003600f900004006000040da000000fe00fd
:040670000000050081
:020000040000fa
:100674000000fa00213a8000f08f2f000080600013
:10068400203a8800c8c2a900ccc2a9000080fa00a0
:10069400000006000000fa000028ef002108800096
:1006a400f0fc2f00008060000050a00020088800ab
:1006b400f0342c00100888009460a8008460a9001d
:1006c40005e1a8000080fa00000006001200fa000c
:1006d400889fbe006007980071079800020f980079
:1006e4006000b80020079800310798006e00900061
:1006f400cf80de002e019000be0190000200400079
:100704008380480020079800310798002e0190004c
:10071400be0190004818dd00c810de0081007000a2
:100724004810dd0020079800310798007e009000f3
:10073400cf80de002e019000be0190000200400038
:100744008380480020079800310798002e0190000c
:10075400be0190004818dd00c810de008100700062
:100764004810dd0020079800310798000e0890001b
:10077400cf80de002e019000be01900002004000f8
:10078400838048002007980031079800000020006b
:1007940001082000008fbe001a0037002e009000d0
:1007a400be0090001e01be00020278000301780022
:1007b40080017800810078000300620081006100fc
:1007c40081047800000478000800be004007980007
:1007d400510798004e009000de009000e00f50009a
:1007e400e08f580002003200cf00070001003700fc
:1007f400c60007001e00be008100d1000080d300a7
:10080400008fbe001e00be00e00f5000e08f5800b5
:10081400e2ff3a0050002000030007004f04be002e
:100824000080fa00000006000400fa001007980097
:100834000000eb00000f780002003700c40007003e
:100844001e0fe8001e0090009e007800808f50006c
:10085400faff35000080fa00000006000200fa00ea
:10086400004f78001ecfea0040c5b3009e407800d8
:1008740080cf50000d003e001e4078006300b90098
:1008840000007800004178009e407800d00f2000de
:100894000088b90000007800004078000040e900ba
:1008a4008040eb00260007002300370090cab30005
:1008b4009e40780080cf500010003e00b0cab300c4
:1008c4001e4f40009e407800d00f20000088b900e1
:1008d40000007800004078000041e9001e407800e4
:1008e4006300b90000007800004078008040780080
:1008f4000040eb00120007000f00370061c5b30091
:100904001ecf40009e407800d00f20000088b90020
:1009140000007800004078008041e9001e40780023
:100924006300b90000007800004078000041eb004b
:1009340083407800020007000080fa0000000600ef
:100944000800fa0040479800514798006247980011
:100954004e4090000080fb008000eb00c001dd00f1
:10096400020020005e4090000082fb008002eb0049
:100974004828dd00c820de00810070004820dd002a
:1009840000017100818171006e4090000080fb00c5
:100994008000eb000000710081807100008fbe00b8
:1009a4001e00be000080fa00000006000400fa00e9
:1009b400008fbe001e00be004008de00004078002c
:1009c4000080fa00000006000400fa00008fbe0058
:1009d4001e00be004809dd004800de000000710072
:1009e400c808de00004078000080fa00000006001d
:1009f4000400fa00008fbe001e007800004078005a
:100a04000080fa00000006000c00fa00889fbe0077
:100a140040079800510798000000200001082000ba
:100a2400008fbe001a0037004e009000de009000d8
:100a34001e01be00020278000301780080017800e4
:100a44008100780003006200810061008104780065
:100a5400000478000800be002007980031079800c1
:100a64002e009000be009000e00f5000e08f580070
:100a7400020032002c0007000100370023000700a9
:100a84001e00be008100d1000080d300008fbe0094
:100a94001e00be00e00f5000e08f5800e2ff3a0055
:100aa4005000200060ff07004f04be000080fa00e1
:100ab400000006000000fa000001eb00f10f200026
:100ac4000000eb0001ff07000428ef0010002000e5
:100ad40010408800effe07000080fa0000000600c6
:100ae4000000fa000001eb008000eb00f00f200092
:100af400f6fe07000228ef001000200020408800c6
:100b0400e4fe07000080fa0000000600ccc2a80042
:100b14000300090000000000ccc2a900060009007f
:100b24000000000000000600ccc2a8000800090074
:100b340000000000ccc2a900010009000000000070
:100b4400000006003906090000000000000006004d
:100b5400793e090000000000000006000000fa00d1
:100b6400c3fe0700deff0700030007000000eb00e0
:100b74000080fa00000006000000fa00ffff3700c2
:020000040000fa
:100b84000008000006000000000000000000000053
:020000040000fa
:020000040001f9
:0457f8000ff90000a5
:020000040000fa
:020000040001f9
:0457fc007f3f0000eb
:00000001FF
